:020000040020DA
:10000000976100009381013917A10000130101C21B
:100010001755000013054575975500009385C57465
:1000200017660000130686BA63FCC500832205002C
:1000300023A055001305450093854500E3E8C5FE60
:1000400017650000130585B897650000938505BE08
:100050006378B5002320050013054500E36CB5FE69
:100060001725000013058575EF20406FEF20807A7B
:100070001305000093050000EF0040056F2080701D
:100080003765200093050000130545BD6F1040241F
:10009000B7652000938785BE1307803E23A4E70041
:1000A0003757200037662000371520001307874B8D
:1000B000130686BC938585BE1305850023A2070021
:1000C00023A0E70023A807006F20806A130101FF27
:1000D000B7272000232611009387C76273905730FB
:1000E000EF004002EF00800E6FF0DFFF930700008B
:1000F00063880700372520001305857B6F20006685
:1001000067800000130101FF23248100B7C50100AF
:100110003764200093850520130584BE2326110033
:1001200023229100EF00D0441305007DEF2000282A
:10013000B75520009385052A130584BEEF0080483B
:10014000B75520009385452C130584BEEF008047EA
:10015000B75520009385452E130584BEEF008046D9
:100160009305100013055000EF20802C930510001C
:1001700013055000EF200036B755200093858530D9
:10018000130584BEEF000044B7642000138544BD0E
:10019000EF100016B7850100138544BD9385056AED
:1001A000EF104033B7552000130584BE9385853288
:1001B000EF004041032481008320C10083244100DB
:1001C0001305803E130101016F20401E130101FE43
:1001D000232C8100B7552000376420009385853497
:1001E000130584BE232E1100232A91002328210108
:1001F00023263101EF00003DB75520009385853659
:10020000130584BEEF00C02E9305100013054000B7
:10021000EF2000229305000013054000EF20802B03
:100220001305401FEF20001D93052000130540001B
:10023000EF2000201305C003EF20C01B1305400072
:10024000EF20C0339304050013050019EF20801A36
:10025000639A0416B755200093850538130584BEAC
:10026000EF0040361305401FEF204014B755200023
:100270009385853B130584BEEF008027B76420007B
:1002800093050004138544BDEF10502F9305000023
:10029000138544BDEF10102F631C0510B7552000C7
:1002A00093850538130584BEEF00C0319305000423
:1002B000138544BDEF10902C93052000138544BD99
:1002C000EF00906793050000138544BDEF10902B5D
:1002D0001306200093050004138544BDEF10500A57
:1002E000930720006304F5101305401FEF20000C56
:1002F000B755200093850541130584BEEF00401FCC
:1003000093058004138544BDEF105027930500002A
:10031000138544BDEF1010276310050CB75520005E
:1003200093850538130584BEEF00C0291305401FCF
:10033000EF20C007B755200093858544130584BE80
:10034000EF0040289305000013055000EF208018AF
:100350001305803EEF208005B75520009385454664
:10036000130584BEEF00002693051000130550000E
:10037000EF2040161305803EEF204003B7552000C4
:10038000130584BE93850548EF00C0230324810133
:100390008320C10183244101032901018329C10074
:1003A00037150000130585BB130101026F20000003
:1003B000B75520009385C53E130584BEEF0080200D
:1003C0006FF09FF2B755200093850539130584BE61
:1003D000EF00401F6FF01FE9B7552000938545429D
:1003E000130584BEEF00001E6FF05FF4138544BD5B
:1003F000EF00D04F13090500138544BDEF00104FE7
:10040000B7552000930905009385053D130584BE6B
:10041000EF00000E1319890033653901131505012A
:100420001355050113553500EF40502AB7672000DA
:1004300003A607B983A647B9EF309041EF40504972
:10044000EF40503B138605009306200093050500FE
:10045000130584BEEF00D010B75520009385853E6C
:10046000130584BEEF0000166FF01FE813050000AF
:100470006780000067800000130101FE232821012E
:10048000232E1100232C8100232A910023263101E1
:1004900013090600630E0602930405009389050004
:1004A000130400006F00C0001304140063028902EB
:1004B00083A70400338789008345070083A70700CB
:1004C00013850400E7800700E31005FE130904000C
:1004D0008320C10103248101832441018329C100B8
:1004E00013050900032901011301010267800000BF
:1004F000130101FE232E1100232C8100232A9100D9
:100500002328210123263101232441016382050888
:100510000329050093040500138505009389050050
:10052000EF20003903274900B7072000938787474A
:10053000130A05006312F706630A0502130400009C
:100540006F0000011304140063028A0203A904006F
:10055000B38789000327090083C5070013850400BA
:10056000E7000700E31005FE130A04008320C10121
:100570000324810183244101032901018329C1004E
:1005800013050A00032A810013010102678000009D
:10059000130A00006FF09FFD032481018320C10135
:1005A00003290101032A8100130605009385090030
:1005B000138504008329C100832441011301010232
:1005C00067000700130101FE232A91008324050020
:1005D000232C810023206101232E110023282101D7
:1005E00023263101232441012322510103AB44007E
:1005F000130405006382051213850500370A2000E5
:1006000093890500130A8A47EF20802A930A050080
:10061000631C4B0B13090000631A05006F000003F5
:100620001309190083240400638C2A0BB387290162
:1006300003A7040083C5070013050400E7000700B3
:10064000E31005FE8324040003AB4400B7592000E7
:100650001385094AEF20C025930A0500631E4B0944
:10066000630E05029305D000130A00009389094A1E
:100670006F004001130A1A00638C4A0983240400A6
:1006800083C5090083A7040013050400938919009A
:10069000E7800700E31005FE330949018320C1010B
:1006A00003248101832441018329C100032A81009D
:1006B000832A4100032B01001305090003290101CE
:1006C00013010102678000001306050093850900ED
:1006D00013050400E7000B00832404001309050040
:1006E000B759200003AB44001385094AEF20401C92
:1006F000930A0500E3064BF7130605009385094AA4
:1007000013050400E7000B003309A9006FF01FF97F
:10071000330959016FF09FF8370A200013090000D0
:10072000130A8A476FF09FF2130101F7232481080F
:10073000232E3107232A510723248107232611085A
:100740002322910823202109232C41072328610714
:1007500023267107232291072320A107232EB10509
:1007600013040500938A0500130C0600930920006A
:1007700063C406009389060013860A0013850A00E5
:1007800093060C0093050C00EF40C067832404001F
:1007900063160550B767200003AB07BA83AB47BAAF
:1007A00013191C001359190013850A009305090039
:1007B00013060B0093860B00EF40C064631E050018
:1007C00013850A009305090013060B0093860B009E
:1007D000EF30C0796344A036B767200003A687BA1C
:1007E00083A6C7BA13850A0093050C00EF30C069D1
:1007F0006348A02AB767200003A607BB83A647BBB0
:1008000013850A0093050C00EF304076634E053ED9
:1008100013850A0093050C001306000093060000E0
:10082000EF30C074130A00006348053637672000B4
:1008300063800950B7662000832787B98325C7B92D
:1008400003AB86BB83ABC6BB13090000138507004F
:1008500013060B0093860B0013091900EF20D074C8
:100860001379F90F93070500E34239FF1386070058
:100870009386050013850A0093050C00EF20407550
:10088000130B0500938A0500EF40805C13090500F7
:100890002306010493070500130CC1041307A000ED
:1008A00013069000B3F5E702930B0C009386070044
:1008B000130CFCFF93850503A38FBBFEB3D7E702A0
:1008C000E362D6FE13050C002326B100370D20008D
:1008D000EF10107E83AD440093078D47232AF1006B
:1008E000930C05006394FD42630E05028325C1004D
:1008F000130C00006F0040016386FC388324040061
:1009000083450700138C070083A704001305040028
:10091000E780070093071C0033878B01E31E05FC6B
:10092000330A8A01638C091C032D0400B75420008C
:1009300013854434EF10D077832B4D00832741017A
:10094000130C0500639CFB3E630005049305E00265
:10095000930B0000938444346F004001938B1B0081
:10096000032D040063027C3D83C5040083270D0032
:100970001305040093841400E7800700E31005FECC
:10098000032D0400330A7A0113050900EF40805E4D
:10099000938605001306050093850A0013050B00D6
:1009A000EF309047B766200083A786BB03A8C6BB7D
:1009B0009389F9FF232CF100232E010193070500F1
:1009C000930DA00013099000032681018326C10125
:1009D00013850700930BC104EF308067930C05006B
:1009E0002326B100EF40C046930A05002306010408
:1009F00093070500B3F5B703138C0B0013860700AC
:100A0000938BFBFF93850503A30FBCFEB3D7B703FE
:100A1000E362C9FE13850B002328B100EF10506973
:100A2000032B4D0083274101930405006310FB2431
:100A3000630E050283250101130B00006F004001C6
:100A40006382D422032D040083450600138B060025
:100A500083260D0013050400E780060093061B00A3
:100A600033066C01E31E05FC330A6A0113850A0094
:100A7000EF404050938605008325C1001306050012
:100A800013850C00EF3050399389F9FF1307F0FFFD
:100A9000930705006384E906032D04006FF0DFF27D
:100AA000375920001305C94AEF10906083A944000C
:100AB000B707200093878747130A05006390F91052
:100AC000630E05029305F006930900001309C94A55
:100AD0006F0040019389190063023A0383240400E4
:100AE0008345090083A704001305040013091900B6
:100AF000E7800700E31005FE138A09008320C10880
:100B00000324810883244108032901088329C1079C
:100B1000832A4107032B0107832BC106032C81067F
:100B2000832C4106032D0106832DC10513050A0000
:100B3000032A81071301010967800000375920004B
:100B40001305894AEF10D05683A94400B707200047
:100B500093878747130A0500639CF912E30005FA9F
:100B600093059006930900001309894A6F0040011C
:100B700093891900E3043AF98324040083450900AA
:100B800083A704001305040013091900E780070078
:100B9000E31005FE6FF05FF683A704009305D00213
:100BA00013050400E7800700B707008083240400D2
:100BB000130A050033CC87016FF05FC713060A00E4
:100BC0009305C94A1305040093870900032481088B
:100BD0008320C10883244108032901088329C10710
:100BE000032A8107832A4107032B0107832BC106B0
:100BF000032C8106832C4106032D0106832DC1059C
:100C00001301010967800700375920001305C94AFD
:100C1000EF10104A83A94400B70720009387874745
:100C2000130A0500E39CF9F8E30A05EC9305F006C6
:100C3000930900001309C94A6F0040019389190004
:100C4000E30E3AEB832404008345090083A70400E4
:100C50001305040013091900E7800700E31005FEDF
:100C60006FF09FE9330A9A006FF05FE0130605000A
:100C700093850B0013050400E7000B00330AAA005C
:100C80006FF0DFDE330A9A01E38A09E66FF0DFC90D
:100C9000130605009305894A6FF0DFF237592000EB
:100CA0001305494AEF10D04003AA4400B7072000BB
:100CB00093878747930905006310FA04630E0508BC
:100CC0009305E006130A00001309494A6F0040012A
:100CD000130A1A00E38449E38324040083450900CE
:100CE00083A704001305040013091900E780070017
:100CF000E31005FE6FF09FE0130605009305494AD7
:100D00001305040093070A006FF05FEC130605005B
:100D100093050C0013050400E7800D00330AAA00B8
:100D2000E38E09DC6FF05FC0330A8A016FF0DFC524
:100D3000832787B98325C7B96FF05FB31306050012
:100D40009385443413050400E7800B00330AAA009E
:100D5000032D04006FF05FC3130A00006FF01FDA69
:100D60006FF09F9C678000001305100067800000F3
:100D7000130101FF232481001304050037E5F50565
:100D80001396450093060000130505109305000017
:100D900023261100EF10D05B83270401638E070028
:100DA0000327040193071000630CF71403270401C1
:100DB00093072000630AF716B707001013073008DF
:100DC00023A6E710832704011377F50F638E07002E
:100DD0008326040193071000638CF60C832604011C
:100DE000930720006386F612B707001023A0E710D0
:100DF00083270401135585001375F50F638E0700D3
:100E00000327040193071000630EF70C0327040166
:100E1000930720006304F710B707001023A2A71060
:100E200083270401638E0700032704019307100042
:100E30006300F70C0327040193072000630CF710ED
:100E4000B70700101307300023A6E710832704011B
:100E5000638E070003270401930710006300F70661
:100E60000327040193072000630EF70EB707001055
:100E700023A2071083270401638E070003270401C0
:100E8000930710006302F70403270401930720006F
:100E90006304F70AB707001023A407100F00F00F30
:100EA0008320C10003248100130101016780000039
:100EB000B707001023A0E7206FF09FF3B7070010DB
:100EC00023A207206FF01FFBB707001023A4072001
:100ED0000F00F00F8320C1000324810013010101E2
:100EE00067800000B707001023A2A7206FF05FF310
:100EF000B70700101307300023A6E7206FF01FF597
:100F0000B70700101307300823A6E7206FF09FEB08
:100F1000B707001023A0E7306FF09FEDB707001070
:100F200023A2A7306FF0DFEFB707001013073008D8
:100F300023A6E7306FF01FE9B707001023A407309E
:100F40000F00F00F8320C100032481001301010171
:100F500067800000B70700101307300023A6E730B2
:100F60006FF0DFEEB707001023A207306FF09FF09D
:100F700083270501638E07000327050193071000EF
:100F80006304F70403270501930720006306F704B1
:100F9000B707001083A7471193F71700638207066E
:100FA00003270501630C0700032705016304F70409
:100FB00003270501930720006308F702B707001015
:100FC00003A5071067800000B707001083A747211B
:100FD00093F717006FF09FFCB707001083A7473106
:100FE00093F717006FF09FFBB707001003A50730BA
:100FF00067800000B707001003A507206780000086
:101000001305F0FF67800000678000009305000271
:101010006F1040741306100013082000B70600106C
:101020001307000283270501638A07008327050150
:101030006386C70483270501638A070583A74611D2
:1010400093F70702E390E7FE83270501638E07000D
:1010500003270501930710006302F7040327050126
:10106000930720006306F704B707001023A0B7100A
:101070000F00F00F130500006780000083A74621D2
:1010800093F70702E390E7FA6FF01FFC83A746315E
:1010900093F70702E398E7F86FF01FFBB70700101C
:1010A00023A0B7200F00F00F130500006780000099
:1010B000B707001023A0B7300F00F00F1305000092
:1010C00067800000130101FF23261100EFF09FF459
:1010D0008320C10013051000130101016780000087
:1010E000B767200003C507BD678000003767200091
:1010F000130707BD83460700638A06023766200090
:101100001306E6BC83450600B7672000938787C0B7
:10111000B387B7009386F6FF9385150003C50700D4
:101120002300B6002300D700678000001305F0FFFE
:101130006780000067800000B76720009387F7BCD6
:1011400003C607001307F0006368C7029306160082
:101150003767200093F6F60F130787C13307C700E0
:101160002380D700B76720002300B700A388D7BC2F
:101170001305100067800000130101FF2324810084
:10118000B755200013040500376520009385054EF0
:10119000130585BE23261100EFF08FB593071000CD
:1011A0008320C1002322F4000324810013050000E2
:1011B0001301010167800000130101FC232A910241
:1011C000232E1102232C81022328210323263103FD
:1011D000232441032322510323206103232E710181
:1011E000232C8101232A91012328A1012326B10167
:1011F0009304060063040608371B2000B76B200029
:10120000930A050013840500B38CC500130B8B13E0
:10121000376C2000130DF000938B8BC1B76D20004D
:10122000375A2000B7692000130910006F00C00270
:1012300003C706009307170093F7F70F3386EB00F9
:10124000636EED062300B6002380F600A388FDBC84
:101250001304140063848C0283A70A0083450400EE
:101260009306FCBC83A70700E38467FD13850A008F
:1012700013041400E7800700E3908CFE8320C10371
:1012800003248103032901038329C102032A810264
:10129000832A4102032B0102832BC101032C81010C
:1012A000832C4101032D0101832DC100138504000E
:1012B00083244103130101046780000093050A4E53
:1012C000138589BEEFF0CFA223A22A016FF05FF849
:1012D0009307803E2324F500B75720009387875C4F
:1012E000232205002320F5002308B50067800000B5
:1012F0003767200083470501230707BC37672000B5
:10130000230807BC37672000A30707BC3767200006
:10131000A30807BC93F7F70F638207028347050111
:101320001307100093F7F70F638AE710834705014F
:101330001307800093F7F70F6388E714B7170010BF
:101340001307F0FF2385E7800F00F00F83470501A7
:1013500093F7F70F63820702834705011307100015
:1013600093F7F70F6384E70E8347050113078000A7
:1013700093F7F70F6382E712B7170010130740FFC8
:101380002383E7808347050193F7F70F63920708EC
:10139000B717001013071000A383E78083470501E8
:1013A00093F7F70F638207028347050113071000C5
:1013B00093F7F70F6384E70A83470501130780005B
:1013C00093F7F70F6382E70EB71700101307A0FF1C
:1013D0002384E7808347050193F7F70F63820702B1
:1013E000834705011307100093F7F70F6380E708A1
:1013F000834705011307800093F7F70F638EE70A11
:10140000B7170010A38407800F00F00F678000005B
:10141000834705011307100093F7F70F6380E70672
:10142000834705019306800093F7F70F638ED70873
:10143000B7170010A383E7806FF05FF6B7170010AF
:101440001307F0FF2385E7906FF01FF0B717001028
:10145000130740FF2383E7906FF0DFF2B717001008
:101460001307A0FF2384E7906FF0DFF6B717001093
:10147000A38407900F00F00F67800000371700105B
:10148000A303F7906FF09FF1B71700101307F0FF59
:101490002385E7006FF05FEBB7170010130740FFDD
:1014A0002383E7006FF01FEEB71700101307A0FFAC
:1014B0002384E7006FF01FF2B7170010A384070022
:1014C0000F00F00F67800000B7170010A383E7003C
:1014D0006FF0DFEC130101FF2324810013040500EA
:1014E00037E5F50523229100139615009384050036
:1014F0009306000013050510930500002326110034
:10150000EF10006583470401131705011357070106
:1015100093F7F70F1375F50F6382070283470401F2
:101520009306100093F7F70F638AD71283470401DD
:101530009306800093F7F70F6384D714B717001052
:101540002383A780834704011357870093F7F70F7E
:1015500063820702834704019306100093F7F70F95
:101560006382D70C834704019306800093F7F70F3B
:10157000638CD70EB7170010A383E78037E5F50516
:101580001396240093060000130505109305000030
:10159000EF10005C8347040113170501135707017F
:1015A00093F7F70F1375F50F638207028347040162
:1015B0009306100093F7F70F638CD7068347040157
:1015C0009306800093F7F70F6386D70AB7170010CA
:1015D0002384A780834704011357870093F7F70FED
:1015E00063820702834704019306100093F7F70F05
:1015F0006386D704834704019306800093F7F70FAF
:101600006386D708B7170010A384E7800F00F00F98
:101610008320C100032481008324410013010101C0
:1016200067800000B7170010A383E7906FF01FF5E5
:10163000B71700102384A7906FF0DFF9B7170010D9
:10164000A384E7900F00F00F8320C10003248100E2
:10165000832441001301010167800000B7170010C7
:101660002383A7906FF01FEEB7170010A383E70046
:101670006FF0DFF0B71700102384A7006FF09FF51D
:10168000B71700102383A7006FF0DFEBB717001028
:10169000A384E7000F00F00F8320C1000324810022
:1016A0008324410013010101678000001307050036
:1016B0000345050137682000130808BD931726006D
:1016C00093E717002300C8001375F50F93F7F70F82
:1016D0006302050203460701130510001376F60F97
:1016E0006306A63E03460701130580001376F60F36
:1016F0006308A642371600102300F6800F00F00F93
:101700009395150013E615001376F60FB7672000C2
:101710002386C7BC93081000130380003715001000
:10172000930540008347070193F7F70F638E070087
:101730008347070193F7F70F63881725834707014E
:1017400093F7F70F638A67248347158093F7470061
:10175000E38AB7FC8347070193F7F70F6382070219
:10176000834707019305100093F7F70F6386B73699
:10177000834707019305800093F7F70F6380B73C19
:10178000B71700102382C7800F00F00F1305100059
:1017900093088000B7150010130600018347070166
:1017A00093F7F70F638E07008347070193F7F70F4F
:1017B000638CA71E8347070193F7F70F638E171FEC
:1017C00083C7158093F70701E39AC7FC8347070196
:1017D00093F7F70F63820702834707011306100090
:1017E00093F7F70F6380C730834707011306800024
:1017F00093F7F70F638CC732B717001083C72780A2
:1018000093F71700639007261305100093088000D4
:10181000B7150010130600088347070193F7F70F69
:10182000638E07008347070193F7F70F6380A71CB8
:101830008347070193F7F70F6380171F83C715804E
:1018400093F70708E39AC7FC0345080093070001D4
:1018500063ECA72E6304050837632000130383C0DD
:10186000B30E650093081000130E800037160010A9
:10187000930500048347070193F7F70F638E070072
:101880008347070193F7F70F638217158347070113
:1018900093F7F70F6384C7158347168093F7070400
:1018A000E38AB7FC8347070193F7F70F638E0700BE
:1018B0008347070193F7F70F638A171583470701DB
:1018C00093F7F70F638AC7178347568093F7F70F8D
:1018D0002300F30013031300E39E6EF89308100037
:1018E00013038000B715001013062000834707017B
:1018F00093F7F70F638E07008347070193F7F70FFE
:10190000638E170F8347070193F7F70F638E6710F6
:1019100083C7158093F72700E39AC7FC376620003A
:10192000230706BC6382060A8346070193F6F60F77
:101930006392061CB71600102380F6800F00F00F8C
:101940009305100013058000371600109306200041
:101950008347070193F7F70F638E0700834707015B
:1019600093F7F70F6380B70E8347070193F7F70FDD
:101970006382A70E8347168093F72700E39AD7FC6C
:1019800003450800678000008347159093F74700E0
:10199000E38AB7D86FF01FDC8347150093F7470041
:1019A000E382B7D86FF01FDB83C7159093F7070169
:1019B000E396C7DE6FF09FE183C7150093F7070139
:1019C000E39EC7DC6FF09FE06780000083471690BE
:1019D00093F70704E380B7EA6FF0DFEC8347160064
:1019E00093F70704E388B7E86FF0DFEB83C7159040
:1019F00093F70708E392C7E26FF01FE583C71590DE
:101A000093F72700E394C7EE6FF05FF1834756909A
:101A100093F7F70F6FF0DFEB83C7150093F7070815
:101A2000E39CC7DE6FF05FE283C7150093F72700E2
:101A3000E39EC7EA6FF09FEE8347560093F7F70FD8
:101A40006FF01FE98347169093F72700E392D7F0D2
:101A50006FF01FF38347160093F72700E39AD7EE42
:101A60006FF01FF293051000130580003716001069
:101A7000930620008347070193F7F70F638E070053
:101A80008347070193F7F70F6382B7028347070184
:101A900093F7F70F6384A7028347168093F7270015
:101AA000E39AD7FC13050000678000008347169077
:101AB00093F72700E390D7FC6FF0DFFE8347160013
:101AC00093F72700E398D7FA6FF0DFFD3716001081
:101AD0002300F6906FF09FC2B71700102382C790C3
:101AE0006FF09FCAB717001083C7279093F71700AE
:101AF0006FF05FD1834607011306100093F6F60FCF
:101B0000638AC606834607011306800093F6F60F24
:101B1000E392C6E2B71600102380F6006FF01FE2D2
:101B2000371600102300F6006FF05FBDB7170010E6
:101B300083C7270093F717006FF0DFCCB7170010AB
:101B40002382C7006FF05FC4B755200037652000BF
:101B5000130101FF93858552130585BE23261100CD
:101B6000EFE01F998320C10013050000130101015C
:101B700067800000B71600102380F6906FF01FDC1E
:101B8000930610001376F60F93F5F50F6FF01FB262
:101B90003766200093061000139715008347050150
:101BA000A306D6BC376620002306E6BC37672000B4
:101BB000A30707BC37672000A30807BC93F7F70FFC
:101BC000638007028347050193F7F70F6382D718F5
:101BD000834705011307800093F7F70F6382E71827
:101BE000B71700101307F0FF2385E78013061000D6
:101BF00013078000B7160010930500018347050105
:101C000093F7F70F638E07008347050193F7F70FEC
:101C10006384C70A8347050193F7F70F6386E70AD2
:101C200083C7168093F78700E39AE7FC8347050193
:101C300093F7F70F638E07008347050193F7F70FBC
:101C40006384C70A8347050193F7F70F6386E70AA2
:101C500083C7168093F70701E392B7FA834705011C
:101C600093F7F70F639A070AB717001013071000CE
:101C70002380E7800F00F00F130710001306800089
:101C8000B71600108347050193F7F70F638E07001F
:101C90008347050193F7F70F6380E7048347050146
:101CA00093F7F70F6382C70683C7168093F7170071
:101CB000E39AE7FC6780000083C7169093F78700DC
:101CC000E39EE7F26FF09FF683C7160093F7870055
:101CD000E396E7F26FF09FF583C7169093F717002E
:101CE000E392E7FA6FF01FFD83C7169093F70701A1
:101CF000E396B7F06FF09FF683C7160093F70701DE
:101D0000E39EB7EE6FF09FF583C7160093F71700B9
:101D1000E39AE7F66FF01FFA8347050113071000F7
:101D200093F7F70F6380E70283470501930680006E
:101D300093F7F70F638ED702B71700102380E78061
:101D40006FF05FF3371700102300F7906FF09FF2EA
:101D5000B71700101307F0FF2385E7906FF01FE916
:101D6000B71700101307F0FF2385E7006FF01FE897
:101D7000B71700102380E7006FF0DFEF93F5F50F42
:101D80006FF01FE1130101FF2324810023261100BE
:101D9000130405001306100013058000B716001089
:101DA000130740008347040193F7F70F638E070082
:101DB0008347040193F7F70F638AC7308347040111
:101DC00093F7F70F638CA73083C7168093F747000C
:101DD000E38AE7FC83470401376720000347C7BC59
:101DE00093F7F70F638207028347040193061000FD
:101DF00093F7F70F6384D748834704019306800065
:101E000093F7F70F6386D74EB71700102382E7804A
:101E10000F00F00F1306100013058000B716001016
:101E2000130700018347040193F7F70F638E070040
:101E30008347040193F7F70F638AC72A8347040196
:101E400093F7F70F638CA72A83C7168093F70701D0
:101E5000E39AE7FC8347040193F7F70F63820702D5
:101E6000834704011307100093F7F70F638EE740D1
:101E7000834704011307800093F7F70F6380E74857
:101E8000B717001003C827801378180093071000B5
:101E9000130610006306F84013058000B716001003
:101EA000130740008347040193F7F70F638E070081
:101EB0008347040193F7F70F638EC7268347040116
:101EC00093F7F70F638EA72E83C7168093F747000B
:101ED000E38AE7FC37652000130515BD834705003D
:101EE00013070001636CF74437632000130383C1B9
:101EF0006388070A13061000930880003717001044
:101F00009306000183470401034E030093F7F70F84
:101F1000638E07008347040193F7F70F6384C7229A
:101F20008347040193F7F70F6382171F2302C781CA
:101F30008347040193F7F70F638E0700834704017B
:101F400093F7F70F6388C71C8347040193F7F70FD4
:101F5000638A171D8347178093F70701E39AD7FC1D
:101F60008347040193F7F70F638E0700834704014B
:101F700093F7F70F638CC71C8347040193F7F70FA0
:101F8000638817258347278093F717006386C71C4C
:101F9000834705001308180013031300E344F8F601
:101FA0008347040193F7F70F6392072AB7170010CE
:101FB000130720002380E7800F00F00F13061000A6
:101FC00013088000B7160010130720008347040190
:101FD00093F7F70F638E07008347040193F7F70F1A
:101FE000638EC71E8347040193F7F70F63800721B1
:101FF00083C7168093F72700E39AE7FC63900522D6
:102000008347040137682000B76820001308D8BC54
:10201000130710009388F8BC2300E8002380080011
:102020002300050093F7F70F63800702834704013D
:1020300093F7F70F6384E7368347040113078000A3
:1020400093F7F70F6384E734B71700101307F0FF17
:102050002385E7801306100013078000B7160010D1
:10206000930500018347040193F7F70F638E070080
:102070008347040193F7F70F638AC7288347040156
:1020800093F7F70F638AE72883C7168093F78700D3
:10209000E39AE7FC8347040193F7F70F638E070089
:1020A0008347040193F7F70F638EC7268347040124
:1020B00093F7F70F638EE72683C7168093F7070120
:1020C000E392B7FA0F00F00F6F00401683C7169027
:1020D00093F74700E388E7CC6FF0DFCF83C71600A4
:1020E00093F74700E380E7CC6FF0DFCE83C716900D
:1020F00093F70701E398E7D26FF0DFD583C71600A7
:1021000093F70701E390E7D26FF0DFD42302C70112
:102110006FF01FE28347179093F70701E39AD7E028
:102120006FF01FE48347170093F70701E392D7E0AE
:102130006FF01FE383C7169093F74700E384E7D659
:102140006FF05FD92302C7916FF09FDE834727901E
:1021500093F71700E39EC7E2B755200037652000CC
:1021600093858559130585BEEFE08FB813061000DF
:1021700093058000B7160010130720008347040161
:1021800093F7F70F638E07008347040193F7F70F68
:102190006386C7068347040193F7F70F6388B70682
:1021A00083C7168093F72700E39AE7FC8320C100DA
:1021B0000324810013053000130101016780000032
:1021C00083C7160093F74700E38EE7CC6FF09FD0EC
:1021D0008347270093F717006FF05FDB83C71690E4
:1021E00093F72700E394E7DE6FF05FE183C7160003
:1021F00093F72700E39CE7DC6FF05FE083C716905E
:1022000093F72700E39CE7F66FF05FFA83C71600A9
:1022100093F72700E394E7F66FF05FF93768200043
:10222000B76820001308D8BC9388F8BC23000500C9
:1022300023800800230008008320C10003248100BC
:1022400013050000130101016780000083470401AA
:102250001307100093F7F70F6382E7128347040117
:102260001307800093F7F70FE392E7D4B717001036
:10227000130720002380E7006FF01FD4B71700106A
:102280002382E7906FF0DFB8B717001003C82790DC
:10229000930710001306100013781800E31EF8BE11
:1022A00093058000B7160010130720008347040130
:1022B00093F7F70F638E07008347040193F7F70F37
:1022C0006382C70A8347040193F7F70F6382B70A53
:1022D00083C7168093F72700E39AE7FC8320C100A9
:1022E0000324810013052000130101016780000011
:1022F000B71700102382E7006FF09FB1B7170010E7
:1023000003C82700137818006FF05FB883C71690D2
:1023100093F787006FF0DFD783C7160093F7870026
:102320006FF01FD783C7169093F707016FF05FD93F
:1023300083C7160093F707016FF09FD8B7552000A9
:102340003765200093850556130585BEEFE04F9A4B
:102350008320C10003248100130510001301010133
:102360006780000083C7169093F727006FF0DFF6B1
:1023700083C7160093F727006FF01FF6B7170010FA
:10238000130720002380E7906FF01FC3B7170010DA
:102390001307F0FF2385E7006FF0DFCBB7170010BE
:1023A0001307F0FF2385E7906FF0DFCA9307803EA5
:1023B0003305F50293070500130810006394070125
:1023C0006F00C0061308300063C407016F000005EA
:1023D0001300000013000000638407006F00C002B8
:1023E0006F00C0043387E702630407006F008003B7
:1023F0006780000093070500130810006388070337
:102400001308300063DC07019387F7FF1300000017
:1024100013000000E39A07FE6F004001130710024B
:102420003387E7021307F7FFE31E07FE678000000C
:102430009307F00063E0A70263960506930510007A
:1024400037070C10B395A5008356070093C7F5FF17
:102450006F000002639C050237071C10930505FFFF
:102460009307100083560700B397B70093C7F7FF91
:10247000B3F7D7009397070193D707012310F7000D
:102480000F00F00F0F00F00F67800000930710009F
:10249000E39AF5FEB7071C1003D70700130505FFE5
:1024A0006F00400193071000E39EF5FCB7070C1086
:1024B00003D70700B395A500B3E5E50093950501A3
:1024C00093D505012390B7000F00F00F0F00F00F18
:1024D000678000009307F00063E6A704B7060C10BE
:1024E00003D7060093071000B397A70033E7E70070
:1024F00013170701135707012390E6000F00F00F91
:10250000B395A50037070810939727009395050109
:10251000B3E7E70093D505012390B7000F00F00F54
:1025200067800000B7061C1003D70600130505FFDF
:1025300093071000B397A70033E7E70013170701CD
:10254000135707012390E6000F00F00F3707040030
:102550001307C7FFB395A50093972700B3F7E700CC
:102560009395050137071810B3E7E70093D50501E8
:102570002390B7000F00F00F678000009307F00072
:1025800063E8A70437070C10835607009307100071
:102590003395A7009347F5FFB3F7D700939707014B
:1025A00093D707012310F7000F00F00FB7070810AB
:1025B000131525003305F500035505001315050116
:1025C000135505010F00F00F3335A00067800000A0
:1025D00037071C108356070093071000130505FFEB
:1025E0003395A7009347F5FFB3F7D70093970701FB
:1025F00093D707012310F7000F00F00FB70704006F
:102600009387C7FF131525003375F500B70718101A
:102610003305F50003550500131505011355050194
:102620000F00F00F3335A00067800000130101F8A0
:1026300023221100232421002326310023284100D6
:10264000232A5100232C6100232E710023208102B4
:10265000232291022324A1022326B1022328C102AE
:10266000232AD102232CE102232EF102232001058B
:102670002322110523242105232631052328410582
:10268000232A5105232C6105232E71052320810760
:10269000232291072324A1072326B1072328C1075A
:1026A000232AD107232CE107232EF1077325203499
:1026B000F325103413060100EF0080097310153460
:1026C000B72200009382028073A002308320410071
:1026D000032181008321C1000322010183224101E2
:1026E000032381018323C1010324010283244102C6
:1026F000032581028325C1020326010383264103AA
:10270000032781038327C10303280104832841048D
:10271000032981048329C104032A0105832A410571
:10272000032B8105832BC105032C0106832C410655
:10273000032D8106832DC106032E0107832E410739
:10274000032F8107832FC107130101087300203075
:102750006F0000006F0040006F00803E9305050091
:102760009306000013060000130500006F00001D13
:102770009306060013860500930505001305200047
:102780006F00C01B130101FF93050000232481008B
:102790002326110013040500EF000024B767200072
:1027A00003A507BC8327C50363840700E7800700F0
:1027B00013050400EF008034130101FF232481007E
:1027C000B757200037542000130444769387477688
:1027D000B3878740232291002326110093D42740FA
:1027E000638004029387C7FF338487008327040034
:1027F0009384F4FF1304C4FFE7800700E39804FE0A
:102800008320C100032481008324410013010101BE
:1028100067800000130101FF232481002320210190
:1028200037542000375920009307847513098975A0
:102830003309F9402326110023229100135929401E
:1028400063000902130484759304000083270400C5
:102850009384140013044400E7800700E31899FEF2
:10286000375420003759200093078475130949769F
:102870003309F94013592940630009021304847590
:10288000930400008327040093841400130444007D
:10289000E7800700E31899FE8320C100032481002C
:1028A0008324410003290100130101016780000016
:1028B0009377350013070500639C0704B7867F7F75
:1028C0009386F6F79305F0FF0326070013074700EA
:1028D000B377D600B387D700B3E7C700B3E7D70015
:1028E000E384B7FE8346C7FF0346D7FF8347E7FF6E
:1028F0003307A74063800604630A06023335F000FD
:102900003305E5001305E5FF67800000E38806FA5C
:10291000834707001307170093763700E39807FEF5
:102920003307A7401305F7FF678000001305D7FFA3
:10293000678000001305C7FF67800000B7672000AD
:1029400003A707BC83278714638C070403A74700EA
:102950001308F001634EE80613182700630605020A
:10296000338307012324C30883A8871813061000A4
:102970003316E600B3E8C80023A417192324D310A4
:10298000930620006304D5021307170023A2E70073
:10299000B387070123A4B700130500006780000078
:1029A0009307C7142324F7146FF05FFA83A6C718A0
:1029B0001307170023A2E70033E6C60023A6C718B3
:1029C000B387070123A4B700130500006780000048
:1029D0001305F0FF67800000130101FDB7672000B9
:1029E000232C410103AA07BC232021032326110223
:1029F00003298A142324810223229102232E3101E8
:102A0000232A5101232861012326710123248101F6
:102A100063000904130B0500938B0500930A100053
:102A20009309F0FF832449001384F4FF63420402F6
:102A300093942400B304990063840B0483A7441087
:102A4000638077051304F4FF9384C4FFE31634FF17
:102A50008320C1020324810283244102032901024D
:102A60008329C101032A8101832A4101032B01012A
:102A7000832BC100032C8100130101036780000038
:102A80008327490083A644009387F7FF638E87045A
:102A900023A20400E38806FA8327891833978A0063
:102AA000032C4900B377F70063920702E780060022
:102AB0000327490083278A1463148701E38427F9D5
:102AC000E38807F8138907006FF0DFF58327C9183B
:102AD00083A544083377F700631C070013050B0038
:102AE000E78006006FF0DFFC232289006FF09FFA79
:102AF00013850500E78006006FF09FFB930500003B
:102B0000130600009306000013070000930700005F
:102B10009308D00573000000634405006F000000B7
:102B2000130101FF23248100130405002326110053
:102B300033048040EF000001232085006F00000077
:102B400067800000B767200003A547BC67800000CE
:102B5000130E05001308000063DC0500B337A00066
:102B6000B305B040B385F540330EA0401308F0FF25
:102B700063DC0600B337C000B306D0401348F8FF4B
:102B8000B386F6403306C04093080600138F060054
:102B9000930E0E00138305006390062A375720001A
:102BA0001307876563F6C50EB70701006378F60C57
:102BB0009307F00FB3B7C70093973700B356F600EB
:102BC0003307D70083460700B387F6009306000259
:102BD0003387F640638CF600B395E500B357FE00EB
:102BE000B318E60033E3B700B31EEE0013D50801B7
:102BF000B356A3029395080193D5050193D70E010F
:102C00003377A302138606003383D5021317070117
:102C1000B367F70063FE6700B38717011386F6FFFB
:102C200063E8170163F667001386E6FFB3871701B1
:102C3000B387674033F7A702939E0E0193DE0E0120
:102C4000B3D7A70213170701B36ED701B386F502F6
:102C50001387070063FCDE00B38ED8011387F7FFEC
:102C600063E61E0163F4DE001387E7FF1315060118
:102C70003365E500130300006F00400EB706000146
:102C800093070001E36CD6F2930780016FF01FF306
:102C90006316060093081000B3D8D802B7070100E6
:102CA00063FCF80C9307F00F63F41701130F800017
:102CB000B3D7E8013307F700834707009306000204
:102CC000B387E7013387F6406392F60CB38515416D
:102CD0001303100013D508011396080113560601BB
:102CE00013D70E01B3D7A502B3F6A502B305F602BA
:102CF0009396060133E7E60093860700637EB700EC
:102D0000330717019386F7FF636817016376B700EF
:102D10009386E7FF330717013307B740B377A7025E
:102D2000939E0E0193DE0E013357A702939707017E
:102D3000B3EED7013306E6029307070063FCCE002B
:102D4000B38ED8019307F7FF63E61E0163F4CE004C
:102D50009307E7FF139506013365F500930503001C
:102D6000630A0800B337A000B3056040B385F5409F
:102D70003305A04067800000B7070001130F000172
:102D8000E3E8F8F2130F80016FF09FF2B398E800C8
:102D900033D5F500B31EEE00B395E500B357FE0042
:102DA00013DE080133E6B700B357C5039395080156
:102DB00093D505013377C503135506011383070027
:102DC000B386F502131707013367A700637ED700A8
:102DD000330717011383F7FF636817016376D70082
:102DE0001383E7FF33071701B306D74033F7C60352
:102DF0001316060113560601B3D6C60313170701AF
:102E0000B387D502B365C7001387060063FEF500DC
:102E1000B38515011387F6FF63E8150163F6F50026
:102E20001387E6FFB385150113130301B385F5403E
:102E30003363E3006FF01FEA63E6D518B7070100BC
:102E400063F4F6041307F00FB337D70093973700F6
:102E50003757200033D5F600130787653307A700DF
:102E6000034707003307F700930700023383E74067
:102E70006396E70213051000E3E2B6EE3335CE00A9
:102E8000134515006FF09FED370700019307000110
:102E9000E3E0E6FC930780016FF09FFBB357E60089
:102EA000B3966600B3E6D70033D5E500B397650067
:102EB0003357EE0013DF0601B365F7003377E50300
:102EC000939E060193DE0E0193D70501B3186600A9
:102ED0003355E50313170701B367F700B38FAE024D
:102EE0001306050063FEF701B387D7001306F5FF4D
:102EF00063E8D70063F6F7011306E5FFB387D70051
:102F0000B387F74133F7E7039395050193D505019F
:102F1000B3D7E703131707013367B700B38EFE0279
:102F200093850700637ED7013307D7009385F7FFAA
:102F30006368D7006376D7019385E7FF3307D7002F
:102F400013150601370F01003365B5009306FFFF27
:102F5000B375D50013560501B3F6D80093D8080110
:102F60003307D741B38ED502B306D60293D70E01ED
:102F7000B3851503B385D500B387B70033061603B1
:102F800063F4D7003306E60193D607013386C60003
:102F90006366C702E310C7CE370701001307F7FFC8
:102FA000B3F7E70093970701B3FEEE00331E6E0000
:102FB000B387D70113030000E372FEDA1305F5FFB0
:102FC0006FF05FCB13030000130500006FF01FD9F3
:102FD000370810001308F8FF130101FEB377B8009B
:102FE00013D745013378D80013D34601232C810031
:102FF000939737001374F77F1357D50113183800D0
:10300000232A9100B367F70093D4F5011357D60133
:103010001373F37F232E110023282101232631016E
:1030200093D6F60133670701931535001316360062
:10303000330864406398D42C635000136310030476
:10304000B366C700638C06701305F8FF63100502B2
:103050003386C5003335B600B387E700B387A700D2
:1030600093050600130410006F0000079306F07F1D
:103070006310D8021304F07F6F0040219306F07FA5
:103080006306D420B70680003367D7001305080015
:103090009306800363CCA60A9306F00163CEA606CE
:1030A000130800023308A840B3160701B358A6005E
:1030B00033160601B3E616013336C00033E6C60008
:1030C0003357A7003306B6003335B6003307F70091
:1030D000B307A700930506003707800033F7E70022
:1030E0006306071A130414001307F07F630AE45CF5
:1030F000370780FF1307F7FFB3F7E70013F5150055
:1031000013D715003365A7009395F701B3E5A50024
:1031100093D717006F008017930605FE93080002EF
:10312000B356D70013080000630815011308000404
:103130003305A8403318A7003366C8003336C000F3
:1031400033E6C600130700006FF0DFF73366C700F1
:103150003336C0006FF01FFF6302080E3305834053
:10316000631E0402B3E6B700638C06529306F5FFB4
:10317000639C0600B385C500B387E70033B6C5007E
:10318000B387C7006FF01FEE1308F07F63120503CB
:1031900093070700930506006FF0DFED9306F07FBD
:1031A000E308D3FEB7068000B3E7D7009306050017
:1031B00013058003634ED5061305F0016340D50463
:1031C000130800023308D84033950701B3D8D5005F
:1031D000B395050133651501B335B0003365B5000E
:1031E000B3D7D700B305C500B387E70033B6C50032
:1031F000B387C700130403006FF01FEE138506FEAC
:103200009308000233D8A700130500006388160155
:10321000130500043305D5403395A7003365B50089
:103220003335A0003365A800930700006FF09FFBC3
:1032300033E5B7003335A0006FF01FFF930614008D
:1032400013F5E67F63180508B3E6B70063140406B8
:1032500063800646B366C700638A06023386C500EC
:10326000B387E7003335B600B387A7003707800080
:1032700033F7E70093050600630A0700370780FF6E
:103280001307F7FFB3F7E7001304100013F77500F7
:10329000630C074213F7F500930640006306D7421C
:1032A000138745003335B700B387A70093050700A0
:1032B0006F008041E38E06EC3366C700E30C06DA4C
:1032C00093040000B7074000930500001304F07F4B
:1032D0006F00803F1305F07F6382A63E3386C500F2
:1032E0003335B600B387E700B387A7001395F7011E
:1032F00013561600B365C50093D717001384060054
:103300006FF0DFF8635C000F631E0308B366C7004D
:10331000638606441305F8FF631005023386C54033
:1033200033B5C500B387E740B387A74093050600D0
:10333000130410006F0040059306F07FE30CD8D211
:103340009306800363C6A60A9306F00163C8A60627
:10335000130800023308A840B3160701B358A600AB
:1033600033160601B3E616013336C00033E6C60055
:103370003357A7003386C54033B5C5003387E740D0
:10338000B307A740930506003709800033F72701EC
:10339000E30E07EE1309F9FF33F9270193890500BE
:1033A0006F0040219306F07FE302D4EEB706800061
:1033B0003367D700130508006FF09FF8930605FEEA
:1033C00093080002B356D7001308000063081501E4
:1033D000130800043305A8403318A7003366C8005B
:1033E0003336C00033E6C600130700006FF09FF8C5
:1033F0003366C7003336C0006FF01FFF6308080E46
:10340000330583406312040433E8B700630C0834C7
:103410001308F5FF631E0800B305B640B307F74075
:103420003336B600B387C740938406006FF05FF071
:103430009308F07F631415039307070093050600B4
:103440001304F07F6F00000D1308F07FE30603FF05
:1034500037088000B3E70701130805001305800350
:10346000634005091305F001634205059308000256
:10347000B38808413395170133DE0501B395150173
:103480003365C501B335B0003365B500B3D7070167
:10349000B305A640B307F7403336B600B387C7403D
:1034A00013040300938406006FF01FEE130508FE5B
:1034B000130E0002B3D8A700130500006308C8016B
:1034C00013050004330505413395A7003365B500A6
:1034D0003335A00033E5A800930700006FF05FFBD1
:1034E00033E5B7003335A0006FF01FFF130514005C
:1034F0001375E57F6318050833E8B7003365C70027
:1035000063120406631C0800630605269307070080
:1035100093050600938406006FF05FD7E30805D695
:103520003388C540B3B805013385E74033051541FD
:10353000B7088000B3781501638C0800B305B64066
:10354000B307F7403336B600B387C7406FF09FFC30
:10355000B365A8006388052293070500930508005A
:103560006FF0DFD2631C0800630205229307070097
:1035700093050600938406006FF0DFAFE30C05AE01
:103580006FF01FD4B389C54033B535013389E740A7
:103590003309A940370580003375A9006304050885
:1035A000B309B640B307F740333636013389C74015
:1035B000938406006302090813050900EF1090497F
:1035C000130785FF9307F00163C0E7089307000224
:1035D000B387E7403319E900B3D7F900B3E7270110
:1035E000B395E9006344870A3307874093061700C1
:1035F0001306F0016342D606130700023307D740D3
:103600003396E70033D5D500B395E5003366A600C1
:10361000B335B000B365B600B3D7D70013040000CC
:103620006FF0DFC6B3E52901E39605F893070000C4
:10363000130400006F00801413850900EF109041FF
:10364000130505026FF0DFF7930785FDB397F900C7
:10365000930500006FF01FF9130717FE1306000211
:1036600033D7E700130500006388C6001305000484
:103670003305D5403395A70033E5A5003335A000C9
:10368000B365A700930700006FF05FF93304E440CF
:10369000370780FF1307F7FFB3F7E7006FF01FBF8F
:1036A0009307070093050600130405006FF01FBE83
:1036B00093070700930506006FF05FBD1304F07FCA
:1036C00093070000930500003707800033F7E700F9
:1036D000630E0700130414001307F07F6300E40C6B
:1036E000370780FF1307F7FFB3F7E7001397D701FA
:1036F00013D535003365A7001307F07F93D7370044
:10370000631EE4003365F5009307000063080500BD
:10371000B7070800130500009304000013174401C5
:10372000B706F07F9397C7008320C101032481016E
:103730003377D70093D7C7009394F401B367F700AA
:1037400033E7970003290101832441018329C10044
:1037500093050700130101026780000013040800AD
:103760006FF0DFB29307070093050600130405000E
:103770006FF05FDA930700009305000093040000E8
:103780006FF09FF4930700006FF05FFF9305000058
:1037900093040000B70740006FF05FB39307000089
:1037A000930500006FF09FF4130101FD2320210316
:1037B00013D9450123229102232E3101232C4101EB
:1037C00023286101232481019394C500232611023B
:1037D00023248102232A5101232671011379F97FC1
:1037E000130A0500130B0600138C060093D4C400C3
:1037F00093D9F5016300090A9307F07F630EF90E70
:10380000935AD50193943400B3E49A00B70A800028
:10381000B3EA540113143500130919C0930B0000C7
:103820001315CC009354C50013554C019375F57FC7
:10383000135CFC01638005109307F07F6382F5162B
:10384000139534009357DB0133E5A700B7048000DC
:10385000B3649500931F3B00138515C093070000C8
:1038600013972B003367F7001307F7FF1306E000E9
:10387000B3C68901B305A9406360E6163756200038
:10388000131727001306065E3307C7000327070038
:1038900067000700B3EAA400638E0A06638004048D
:1038A00013850400EF10101B930755FF1307C00189
:1038B000634CF702930AD001130485FFB38AFA40E0
:1038C000B3948400B35A5A01B3EA9A0033148A00BD
:1038D0009305D0C03389A5406FF05FF4EF109017C7
:1038E000130505026FF05FFC930485FDB31A9A007F
:1038F000130400006FF0DFFDB3EAA40063840A0242
:1039000013040500938A04001309F07F930B300021
:103910006FF01FF11304000013090000930B100057
:103920006FF01FF0130400001309F07F930B2000C9
:103930006FF01FEFB3EF640163800F08638204042C
:1039400013850400EF10101193050500938755FFB0
:103950001307C001634EF7029306D001938F85FFD2
:10396000B386F6403395F401B356DB00B3E4A6000A
:10397000B31FFB019306D0C03385B6406FF01FEE36
:1039800013050B00EF10100D930505026FF01FFCDF
:10399000138585FDB314AB00930F00006FF09FFDFE
:1039A000B3EF640163820F02930F0B001305F07FE6
:1039B000930730006FF0DFEA930400001305000066
:1039C000930710006FF0DFE9930400001305F07F08
:1039D000930720006FF0DFE863E65401639E9A349A
:1039E000636CF4351396FA01135714009317F4011E
:1039F00093DA1A003364E6001395840093D88F019C
:103A0000B3E8A8001355050133DEAA02939E08010E
:103A100093DE0E011357040113938F00B3FAAA0229
:103A200013060E003388CE03939A0A0133675701B9
:103A3000637E0701330717011306FEFF6368170152
:103A4000637607011306EEFF3307170133070741BB
:103A5000335EA70213140401135404013377A70241
:103A600093020E003388CE03131707013367E40077
:103A7000637E0701330717019302FEFF6368170196
:103A8000637607019302EEFF330717013304074102
:103A90001316060137080100B3625600130EF8FF33
:103AA00013D6020133F7C201135F0301337EC30152
:103AB000B303EE02B304C6033307EF02B30FE6030A
:103AC0003306970013D703013307C70063749700C9
:103AD000B38F0F01135607013306F601B70F01002C
:103AE000938FFFFF3378F70113180801B3F3F30145
:103AF000330878006368C400938402006314C4042C
:103B000063F20705B387670033B767003307170110
:103B10003304E4009384F2FF63E688006394880230
:103B200063E267026366C400631E860063FC0701EC
:103B3000B387670033B76700330717019384E2FF49
:103B40003304E400338807413304C440B3B70701AA
:103B50003304F440930FF0FF63848812B35FA40230
:103B6000135708013374A40213860F00B387FE03B2
:103B70001314040133648700637EF40033041401DA
:103B80001386FFFF636814016376F4001386EFFF6A
:103B9000330414013304F4403357A402131808010A
:103BA000135808013374A40293070700B38EEE0282
:103BB0001314040133648800637ED40133041401B8
:103BC0009307F7FF636814016376D4019307E7FF57
:103BD00033041401131606013366F6009317060129
:103BE00093D70701135706013308EF023304D4417A
:103BF000330FFF02B38EC703330EC70393D70E01F3
:103C0000330FCF01B387E70163F6C7013707010020
:103C10003308E80013D7070133070701370801000D
:103C20001308F8FF33F5070113150501B3FE0E0164
:103C30003305D5016368E4006314E424930F0600A0
:103C40006300050433848800930FF6FF6364140354
:103C50006366E4006314E4226370A3029317130005
:103C600033B36700B3081301930FE6FF3304140165
:103C7000138307006314E4006304650093EF1F00DF
:103C80009387F53F635AF01013F77F006300070234
:103C900013F7FF0013064000630AC70013864F00A6
:103CA000B33FF601B384F401930F06003707000118
:103CB00033F7E400630A0700B70700FF9387F7FFB5
:103CC000B3F4F400938705401307E07F6340F70ADD
:103CD00093DF3F001397D4013367F70113D5340006
:103CE000939747013706F07F1315C5008320C10263
:103CF00003248102B3F7C7001355C50033E5A700BD
:103D00009396F601B367D50083244102032901028B
:103D10008329C101032A8101832A4101032B010167
:103D2000832BC100032C8100130507009385070036
:103D300013010103678000009385F5FF93070000DE
:103D40006FF09FCB9386090093840A00930F0400C1
:103D500093870B0013073000638AE70E13071000E8
:103D60006380E71013072000E39CE7F013050000D1
:103D7000130700009307F07F6FF09FF693060C0087
:103D80006FF05FFDB7040800930F0000930600007A
:103D9000930730006FF01FFC130510003305F5404A
:103DA00013078003634EA70A1307F0016346A706B3
:103DB0009385E541B397B40033D7AF00B395BF0007
:103DC000B3E7E700B335B000B3E7B70033D5A400DD
:103DD00013F777006300070213F7F700130640009C
:103DE000630AC70013874700B337F7003305F500B0
:103DF00093070700370780003377E500631807064D
:103E00001317D50193D737003367F70013553500E3
:103E1000930700006FF0DFEC130710FEB307F740C5
:103E200013060002B3D7F400130700006306C500B1
:103E30001387E5433397E4003367F7013337E00036
:103E4000B3E7E700130500006FF09FF8370508009F
:103E5000130700009307F07F930600006FF05FE800
:103E600013050000130700006FF09FFA1305000010
:103E700013070000930710006FF09FE613860F00F2
:103E8000930F06006FF09FDF370710001307F7FF4F
:103E900013D84501B378B700930705001303050055
:103EA0001378F87F13D5F501930EF07F93D5460173
:103EB0003377D700130E060093F5F57F93D6F601FE
:103EC000631AD801B3EEF800638A0E081305E0FF09
:103ED000678000006396D501B36EC700E3980EFEBD
:103EE00063100808B3E7F80093B71700639605005E
:103EF0003366C700630C0604639C07006314D50097
:103F000063D00503630005041305F0FF678000001C
:103F10001305F0FF638A0600138506006780000022
:103F20006356B800E30205FE67800000E36C17FDEE
:103F30006392E802E3686EFCE366C3FF13050000CA
:103F4000678000001305100067800000E39807FEFB
:103F50006FF05FFBE3E8E8FC6FF05FFEE38E05F7D0
:103F6000E39E05F8930700006FF09FF837071000F5
:103F70001307F7FF13D84501B378B700930705007F
:103F8000130305001378F87F13D5F501930EF07F26
:103F900093D546013377D700130E060093F5F57FCE
:103FA00093D6F601631AD801B3EEF800638A0E08BF
:103FB00013052000678000006396D501B36EC7002B
:103FC000E3980EFE63100808B3E7F80093B71700F4
:103FD000639605003366C700630C0604639C070004
:103FE0006314D50063D00503630005041305F0FFD7
:103FF000678000001305F0FF638A06001385060042
:10400000678000006356B800E30205FE6780000089
:10401000E36C17FD6392E802E3686EFCE366C3FF9E
:104020001305000067800000130510006780000082
:10403000E39807FE6FF05FFBE3E8E8FC6FF05FFEDC
:10404000E38E05F7E39E05F8930700006FF09FF8F5
:10405000130101FD232E310193D94501232481024F
:1040600023229102232C4101232A5101232671018D
:104070009394C500232611022320210323286101E4
:1040800093F9F97F13040500930B0600938A060049
:1040900093D4C40013DAF5016382090A9307F07F11
:1040A0006380F9109357D50193943400B3E49700DB
:1040B000B7078000B3E4F40013193500938919C0E1
:1040C000130B000013D54A011394CA001375F57F32
:1040D0001354C40093DAFA01630005109307F07FCC
:1040E0006300F51693D7DB011314340033E4870023
:1040F000B70780003364F400130515C093973B00A5
:104100001307000093162B00B3E6E6003385A900E1
:104110009386F6FF1308E00033465A019305150015
:10412000636CD81437552000939626001305C5619B
:10413000B386A60083A606006780060033E9A400C4
:10414000630C09066380040413850400EF108010DB
:10415000130755FF9307C00163CCE7029307D00113
:10416000130985FFB387E740B3942401B357F400E4
:10417000B3E49700331924019309D0C0B389A9404F
:104180006FF01FF4EF10000D130505026FF05FFCD8
:10419000930485FDB3149400130900006FF0DFFD54
:1041A00033E9A40063020902130905009309F07FB3
:1041B000130B30006FF01FF193040000930900000F
:1041C000130B10006FF01FF0930400009309F07FB1
:1041D000130B20006FF01FEFB3677401638E0706A7
:1041E0006300040413050400EF10C006930655FF96
:1041F0009307C00163CED7021307D001930785FF51
:104200003307D7403314F40033D7EB00336487000F
:10421000B397FB001307D0C03305A7406FF05FEEE4
:1042200013850B00EF100003130505026FF01FFC50
:10423000130485FD33948B00930700006FF09FFDFE
:10424000B36774016382070293870B001305F07F45
:10425000130730006FF01FEB13040000130500007C
:10426000130710006FF01FEA130400001305F07F1E
:10427000130720006FF01FE9370F0100930EFFFFB7
:104280001357090193D807013379D901B3F7D7013F
:1042900033882803B306F902B30FF7023303F8019A
:1042A00013D8060133086800330E17036374F8014E
:1042B000330EEE01935308013378D801B3F6D601DB
:1042C000135F0401B372D401131808013308D80036
:1042D000B30E5702B306590233092F033303D90132
:1042E00013D90601330969003307E7036376D9015F
:1042F0003703010033076700935E0901B709010026
:10430000B38EEE001387F9FF3379E900B3F6E600C8
:1043100013D4040113190901B3F4E400338797029D
:104320003309D900B38323013303F402B38698021F
:10433000B3878802B388660093560701B3861601D7
:1043400063F46600B387370193D80601B70901000B
:10435000B38FF8009387F9FFB3889202B3F6F600A3
:104360003377F70093960601B386E600B30754024D
:10437000B3049F0233038F02B384F40013D4080103
:10438000B304940063F4F40033033301B70701006E
:104390009387F7FF33F7F400B3F8F800131707011A
:1043A000330E7E003307170133392E013307D7014F
:1043B00033042701330EDE00B336DE00B308F40108
:1043C000338FD8003337D701333424013364870067
:1043D00093D40401B3B8F801B336DF00330494007A
:1043E000B3E6D8003304D4003304640093577F014C
:1043F000131494003364F40093179E00B3E707018D
:10440000B337F000135E7E0113179F00B3E7C701B7
:10441000B3E7E700370700013377E40063060710CE
:1044200013D7170093F71700B367F7001317F401BA
:10443000B3E7E700135414009386F53F635AD00E98
:1044400013F777006300070213F7F7001305400026
:10445000630AA70013874700B337F7003304F4005B
:1044600093070700370700013377E400630A07006A
:10447000370700FF1307F7FF3374E4009386054006
:104480001307E07F634AD71613D737009317D40179
:10449000B3E7E70013543400139746011314C40024
:1044A000B706F07F3377D7001354C4003364870016
:1044B0001316F6018320C1023367C400032481026E
:1044C00083244102032901028329C101032A8101B6
:1044D000832A4101032B0101832BC10013850700AF
:1044E00093050700130101036780000013060A000B
:1044F000138404009307090013070B0093062000A0
:10450000630CD70E93063000630ED70C9306100091
:10451000E314D7F213040000930700006F00C008F3
:1045200013860A006FF09FFD930505006FF0DFF022
:10453000130510003305D54013078003E34CA7FC97
:104540001307F0016346A7069385E5413317B400CE
:10455000B3D6A700B397B7003367D700B337F000DF
:10456000B367F7003354A40013F777006300070222
:1045700013F7F70093064000630AD700138747003C
:10458000B337F7003304F4009307070037078000C0
:104590003377E400631A07061317D40193D7370063
:1045A000B367F70013543400930600006FF0DFEE9A
:1045B000130710FE3307D740130800023357E400F7
:1045C00093060000630605019385E543B316B40026
:1045D000B3E7F600B337F000B367F7001304000049
:1045E0006FF09FF837040800930700009306F07FF0
:1045F000130600006FF05FEA130400009307000049
:104600009306F07F6FF05FE913040000930700004A
:10461000930610006FF05FE8370810001308F8FFEA
:10462000130101FEB377B80013D745013378D800E2
:1046300013D34601232C8100939737001374F77F1F
:104640001357D501232A9100B367F70093D4F501DE
:104650001357D6019315350013183800232E110077
:1046600023282101232631011373F37F1305F07FE3
:1046700093D6F60133670701131636006316A300BD
:104680003365C7006314050093C616003308644001
:104690006398962C6350001363100304B366C7003D
:1046A000638C06701305F8FF631005023386C5009E
:1046B0003335B600B387E700B387A700930506003C
:1046C000130410006F0000079306F07F6310D802F8
:1046D0001304F07F6F0040219306F07F6306D4201F
:1046E000B70680003367D7001305080093068003E0
:1046F00063CCA60A9306F00163CEA6061308000257
:104700003308A840B3160701B358A60033160601B4
:10471000B3E616013336C00033E6C6003357A700B0
:104720003306B6003335B6003307F700B307A700EA
:10473000930506003707800033F7E7006306071A82
:10474000130414001307F07F630AE45C370780FF4B
:104750001307F7FFB3F7E70013F5150013D715009C
:104760003365A7009395F701B3E5A50093D717002C
:104770006F008017930605FE93080002B356D7001A
:104780001308000063081501130800043305A8404E
:104790003318A7003366C8003336C00033E6C600BE
:1047A000130700006FF0DFF73366C7003336C00031
:1047B0006FF01FFF6302080E33058340631E04027F
:1047C000B3E6B700638C06529306F5FF639C0600C0
:1047D000B385C500B387E70033B6C500B387C7000C
:1047E0006FF01FEE1308F07F6312050393070700B5
:1047F000930506006FF0DFED9306F07FE308D3FE2C
:10480000B7068000B3E7D7009306050013058003C1
:10481000634ED5061305F0016340D504130800026A
:104820003308D84033950701B3D8D500B3950501B7
:1048300033651501B335B0003365B500B3D7D70084
:10484000B305C500B387E70033B6C500B387C7001B
:10485000130403006FF01FEE138506FE9308000299
:1048600033D8A70013050000638816011305000460
:104870003305D5403395A7003365B5003335A00027
:104880003365A800930700006FF09FFB33E5B70086
:104890003335A0006FF01FFF9306140013F5E67F79
:1048A00063180508B3E6B700631404066380064680
:1048B000B366C700638A06023386C500B387E70084
:1048C0003335B600B387A7003707800033F7E7001A
:1048D00093050600630A0700370780FF1307F7FFF9
:1048E000B3F7E7001304100013F77500630C0742D9
:1048F00013F7F500930640006306D742138745007F
:104900003335B700B387A700930507006F008041D8
:10491000E38E06EC3366C700E30C06DA930400006E
:10492000B7074000930500001304F07F6F00803F3D
:104930001305F07F6382A63E3386C5003335B6008B
:10494000B387E700B387A7001395F7011356160046
:10495000B365C50093D71700138406006FF0DFF826
:10496000635C000F631E0308B366C70063860644DA
:104970001305F8FF631005023386C54033B5C50043
:10498000B387E740B387A7409305060013041000E0
:104990006F0040059306F07FE30CD8D293068003A6
:1049A00063C6A60A9306F00163C8A60613080002B0
:1049B0003308A840B3160701B358A6003316060102
:1049C000B3E616013336C00033E6C6003357A700FE
:1049D0003386C54033B5C5003387E740B307A740EA
:1049E000930506003709800033F72701E30E07EE31
:1049F0001309F9FF33F92701938905006F0040215E
:104A00009306F07FE302D4EEB70680003367D70049
:104A1000130508006FF09FF8930605FE9308000247
:104A2000B356D700130800006308150113080004EB
:104A30003305A8403318A7003366C8003336C000DA
:104A400033E6C600130700006FF09FF83366C70017
:104A50003336C0006FF01FFF6308080E3305834034
:104A60006312040433E8B700630C08341308F5FF3D
:104A7000631E0800B305B640B307F7403336B600EF
:104A8000B387C740938406006FF05FF09308F07F10
:104A90006314150393070700930506001304F07FC2
:104AA0006F00000D1308F07FE30603FF3708800056
:104AB000B3E70701130805001305800363400509E8
:104AC0001305F0016342050593080002B38808410D
:104AD0003395170133DE0501B39515013365C50123
:104AE000B335B0003365B500B3D70701B305A640B1
:104AF000B307F7403336B600B387C740130403004B
:104B0000938406006FF01FEE130508FE130E0002DB
:104B1000B3D8A700130500006308C80113050004FB
:104B2000330505413395A7003365B5003335A00043
:104B300033E5A800930700006FF05FFB33E5B70093
:104B40003335A0006FF01FFF130514001375E57FC8
:104B50006318050833E8B7003365C700631204061D
:104B6000631C0800630605269307070093050600EB
:104B7000938406006FF05FD7E30805D63388C540FD
:104B8000B3B805013385E74033051541B708800008
:104B9000B3781501638C0800B305B640B307F7403E
:104BA0003336B600B387C7406FF09FFCB365A800EB
:104BB0006388052293070500930508006FF0DFD294
:104BC000631C080063020522930707009305060093
:104BD000938406006FF0DFAFE30C05AE6FF01FD4D7
:104BE000B389C54033B535013389E7403309A9405E
:104BF000370580003375A90063040508B309B64082
:104C0000B307F740333636013389C7409384060033
:104C10006302090813050900EF00C063130785FF4D
:104C20009307F00163C0E70893070002B387E740EA
:104C30003319E900B3D7F900B3E72701B395E900C9
:104C40006344870A33078740930617001306F00171
:104C50006342D606130700023307D7403396E700B6
:104C600033D5D500B395E5003366A600B335B00063
:104C7000B365B600B3D7D700130400006FF0DFC6EA
:104C8000B3E52901E39605F893070000130400003B
:104C90006F00801413850900EF00C05B1305050247
:104CA0006FF0DFF7930785FDB397F90093050000D8
:104CB0006FF01FF9130717FE1306000233D7E70042
:104CC000130500006388C600130500043305D540B2
:104CD0003395A70033E5A5003335A000B365A700E1
:104CE000930700006FF05FF93304E440370780FF5B
:104CF0001307F7FFB3F7E7006FF01FBF9307070035
:104D000093050600130405006FF01FBE930707000C
:104D1000930506006FF05FBD1304F07F930700005A
:104D2000930500003707800033F7E700630E0700A4
:104D3000130414001307F07F6300E40C370780FFAF
:104D40001307F7FFB3F7E7001397D70113D5350023
:104D50003365A7001307F07F93D73700631EE40085
:104D60003365F5009307000063080500B7070800E6
:104D7000130500009304000013174401B706F07FE9
:104D80009397C7008320C101032481013377D700A3
:104D900093D7C7009394F401B367F70033E7970004
:104DA00003290101832441018329C10093050700E0
:104DB0001301010267800000130408006FF0DFB2E6
:104DC0009307070093050600130405006FF05FDAF0
:104DD0009307000093050000930400006FF09FF418
:104DE000930700006FF05FFF93050000930400003D
:104DF000B70740006FF05FB3930700009305000012
:104E00006FF09FF4370710009307F7FF33F7B700F1
:104E100093D54501B3F7D70093F5F57F93D64601B7
:104E20001308F07F93F6F67F639805013367A700B8
:104E300013051000631C07001307F07F1305000023
:104E40006396E600B3E7C7003335F00067800000E3
:104E500013D74501370810009307F8FF1377F77F42
:104E60001306E03FB3F7B7009306050093D5F501AD
:104E7000635AE6041306F0413306B6401385F5FF86
:104E80006354C70413050000639005041305304301
:104E90003305E5401306F001B3E70701634CA600B4
:104EA0001307D7BEB397E70033D5A60033E5A700B5
:104EB00067800000130530413305E54033D5A70076
:104EC000678000001305000067800000130101FFE8
:104ED0002326110023248100232291006306050864
:104EE0009357F54133C4A7003304F4409354F501BC
:104EF00013050400EF0000361307E0419307A000FC
:104F00003307A74063C8A7049307B000B387A7403F
:104F100013055501B357F4003314A400138504009E
:104F20009397C7001317470193D7C7001315F501CF
:104F3000B367F7008320C10033E7A700130504001F
:104F4000032481008324410093050700130101011C
:104F500067800000130555FFB317A40013850400F4
:104F6000130400006FF0DFFB13070000930700003D
:104F70006FF01FFF130101FF23248100232611007E
:104F80001304050063020506EF00C02C1307E0417F
:104F90009307A0003307A74063C0A7049307B0009E
:104FA000B387A74013055501B357F4003314A40089
:104FB0008320C100130504009397C70003248100D8
:104FC0001317470193D7C700B366F7009385060010
:104FD0001301010167800000930755FFB317F40028
:104FE000130400006FF0DFFC9307000013070000BC
:104FF0006FF01FFC135775011377F70F130101FFB3
:105000009307170023248100232291001314950095
:105010002326110093F7E70F135494009354F501DE
:105020006382070493573400130707381314D4011D
:105030009397C7001317470193D7C7001395F4013F
:10504000B367F7008320C10033E7A700130504000E
:10505000032481008324410093050700130101010B
:10506000678000006316070493070000E30204FC56
:1050700013050400EF00001E9307A00063C2A702FF
:105080009307B000B387A74013075501B357F40047
:105090003314E400130790383307A7406FF05FF92B
:1050A000930755FFB317F400130400006FF09FFE41
:1050B00093070000630A0400935734003707080081
:1050C0001314D401B3E7E7001307F07F6FF05FF626
:1050D00013D645011376F67F9396C5001307160085
:1050E00093D796001377E77F9356D501B3E6F60082
:1050F00093D5F501931735006306070A130706C811
:105100001308E00F6342E80C6340E008130590FECB
:105110006340A71237058000B3E6A6001305E0013F
:105120003305E5401308F0016348A802130626C8BA
:1051300033D5A700B397C700B337F000B396C600C6
:10514000B3E7D700B367F5001307000093F67700C5
:10515000638006086F00400E1308E0FF3307E84045
:105160009308000233D7E600130800006306150118
:10517000130626CA3398C600B367F800B337F000A9
:10518000B367F7006FF05FFC131565003335A000BF
:105190009396360093D7D701B366D500B3E7F600F0
:1051A0006FF0DFFAB3E7F60063160600B337F000DE
:1051B0006FF09FF91307F00F638C0700939636008A
:1051C000B70700026FF09FFD930700001307F00F71
:1051D000B7060004B3F6D700638E06001307170066
:1051E0009306F00F6304D706B70600FC9386F6FF1C
:1051F000B3F7D7009306F00F93D737006318D700A3
:1052000063860700B7074000930500003705807FDD
:1052100013177701939797003377A70093D79700D9
:10522000B367F7001395F50133E5A7006780000029
:10523000930710001307000093F6F70013064000D1
:10524000E388C6F8938747006FF09FF89307000044
:105250006FF05FFAB7070100637AF5029307F00F6A
:10526000B3B7A70093973700375720009306000283
:10527000B386F6403355F500930787653385A7005D
:10528000034505003385A64067800000370700010D
:1052900093070001E36AE5FC930780016FF0DFFCF0
:1052A0000A3D3D3D3D3D3D3D3D3D3D3D3D3D3D3D61
:1052B0003D3D3D3D3D3D3D3D3D3D3D3D3D3D3D3D1E
:1052C0003D3D3D002020494E4452412D424D53204A
:1052D000484152445741524520444941474E4F535B
:1052E000544943003D3D3D3D3D3D3D3D3D3D3D3D02
:1052F0003D3D3D3D3D3D3D3D3D3D3D3D3D3D3D3DDE
:105300003D3D3D3D3D3D00005B4F4B5D2052656C9A
:10531000617920496E697469616C697A6564207489
:105320006F204F46462E00005B4F4B5D20493243B5
:10533000204275732028576972653829205374619B
:10534000727465642E0000000A2D2D2D20537461A7
:105350007274696E672053656E736F722053636158
:105360006E202D2D2D000000445331384232302064
:1053700054656D702053656E736F723A20000000A3
:105380004445544543544544205B4F4B5D00000069
:105390004E4F5420464F554E442028436865636B5A
:1053A000204750494F34202B20342E376B20526534
:1053B000736973746F722900494E41323139204D3F
:1053C00061696E2053656E736F723A2000000000B1
:1053D00020202D3E204C6976652042757320566F43
:1053E0006C746167653A2000205600004E4F5420CF
:1053F000464F554E44206174203078343020284385
:105400006865636B20776972696E67290000000028
:105410004144533130313520417578204144433A7D
:10542000200000004E4F5420464F554E44206174DA
:1054300020307834382028436865636B20776972A0
:10544000696E67290000000052454C4159205445BF
:1054500053543A20436C69636B696E67204F4E2E3C
:105460002E2E000052454C415920544553543A20A9
:10547000436C69636B696E67204F46462E2E2E0083
:105480002D2D2D2D2D2D2D2D2D2D2D2D2D2D2D2D4C
:105490002D2D2D2D2D2D2D2D2D2D2D2D00000000F0
:1054A0000D0A00006E616E00696E66006F76660020
:1054B0000000000000000000C4102000780420005C
:1054C0006C04200074042000700F200008102000DD
:1054D0000C102000700D2000640D2000680D2000CD
:1054E0006572726F722C20646174612073697A65D1
:1054F0002065786365656465642063616C6C206514
:105500006E64207472616E736D697373696F6E2857
:1055100029206265666F7265206D6F7265207772F3
:1055200069746528290000006461746120746F6FDC
:10553000206C6F6E6720746F2066697420696E201E
:105540007472616E736D697420627566666572202F
:10555000666F7220726561642E200A0D00000000E3
:105560006461746120746F6F206C6F6E6720746F5C
:105570002066697420696E207472616E736D69743F
:105580002062756666657220696E2077726974653F
:105590002E200A0D000000004E41434B207278641B
:1055A00020616E642073746F70206269742073656B
:1055B0007420696E207772697465200A0D000000FE
:1055C000000000000000000038112000B811200089
:1055D0006C04200034112000EC102000E0102000AA
:1055E0006C3D2000603E20007C3D2000603E20009D
:1055F0004C3E2000603E20007C3D20006C3D2000A1
:105600006C3D20004C3E20007C3D2000443D2000AD
:10561000443D2000443D2000843D2000FC44200007
:10562000FC44200020452000F0442000F0442000ED
:10563000E445200020452000F0442000E4452000FF
:10564000F044200020452000EC442000EC442000E1
:10565000EC442000E44520000001020203030303A0
:1056600004040404040404040505050505050505F2
:1056700005050505050505050606060606060606D2
:1056800006060606060606060606060606060606BA
:1056900006060606060606060707070707070707A2
:1056A000070707070707070707070707070707078A
:1056B000070707070707070707070707070707077A
:1056C000070707070707070707070707070707076A
:1056D0000707070707070707080808080808080852
:1056E000080808080808080808080808080808083A
:1056F000080808080808080808080808080808082A
:105700000808080808080808080808080808080819
:105710000808080808080808080808080808080809
:1057200008080808080808080808080808080808F9
:1057300008080808080808080808080808080808E9
:1057400008080808080808080808080808080808D9
:08575000080808080808080811
:0C575800EC0020008000200090002000E9
:1057680000000000545A2000BC5A2000245B20008E
:105778000000000000000000000000000000000021
:105788000000000000000000000000000000000011
:105798000000000000000000000000000000000001
:1057A80000000000000000000000000000000000F1
:1057B80000000000000000000000000000000000E1
:1057C80000000000000000000000000000000000D1
:1057D80000000000000000000000000000000000C1
:1057E80000000000000000000000000000000000B1
:1057F80000000000000000000000000000000000A1
:10580800000000000000000001000000000000008F
:105818000E33CDAB34126DE6ECDE05000B00000054
:105828000000000000000000000000000000000070
:105838000000000000000000000000000000000060
:105848000000000000000000000000000000000050
:105858000000000000000000000000000000000040
:105B9000FCA9F1D24D62703F000000000000E03F20
:105BA000FFFFFFFFFFFFEF7F000000E0FFFFEF417F
:105BB000000000E0FFFFEFC10000000000002440F3
:045BC0006857200002
:045BC40068572000FE
:0400000500200000D7
:00000001FF
